{
  "contractName": "MusicApp",
  "abi": [
    {
      "constant": true,
      "inputs": [
        {
          "name": "",
          "type": "uint256"
        }
      ],
      "name": "musictracks",
      "outputs": [
        {
          "name": "name",
          "type": "string"
        },
        {
          "name": "artist",
          "type": "string"
        },
        {
          "name": "song",
          "type": "string"
        }
      ],
      "payable": false,
      "stateMutability": "view",
      "type": "function"
    },
    {
      "constant": true,
      "inputs": [],
      "name": "trackcounter",
      "outputs": [
        {
          "name": "",
          "type": "uint256"
        }
      ],
      "payable": false,
      "stateMutability": "view",
      "type": "function"
    },
    {
      "anonymous": false,
      "inputs": [
        {
          "indexed": false,
          "name": "trackId",
          "type": "uint256"
        },
        {
          "indexed": false,
          "name": "name",
          "type": "string"
        },
        {
          "indexed": false,
          "name": "artist",
          "type": "string"
        },
        {
          "indexed": false,
          "name": "song",
          "type": "string"
        }
      ],
      "name": "TrackUploaded",
      "type": "event"
    },
    {
      "constant": false,
      "inputs": [
        {
          "name": "_name",
          "type": "string"
        },
        {
          "name": "_artist",
          "type": "string"
        },
        {
          "name": "_song",
          "type": "string"
        }
      ],
      "name": "uploadTrack",
      "outputs": [],
      "payable": false,
      "stateMutability": "nonpayable",
      "type": "function"
    },
    {
      "constant": true,
      "inputs": [
        {
          "name": "trackId",
          "type": "uint256"
        }
      ],
      "name": "getMusicTrack",
      "outputs": [
        {
          "name": "",
          "type": "string"
        },
        {
          "name": "",
          "type": "string"
        },
        {
          "name": "",
          "type": "string"
        }
      ],
      "payable": false,
      "stateMutability": "view",
      "type": "function"
    },
    {
      "constant": true,
      "inputs": [],
      "name": "getTotalTracks",
      "outputs": [
        {
          "name": "",
          "type": "uint256"
        }
      ],
      "payable": false,
      "stateMutability": "view",
      "type": "function"
    }
  ],
  "bytecode": "0x608060405234801561001057600080fd5b50610d1f806100206000396000f3fe608060405260043610610067576000357c01000000000000000000000000000000000000000000000000000000009004806304dc527d1461006c57806305ed569b146102625780639490a253146103ee578063a2290b2614610419578063bf0c4bf1146105a5575b600080fd5b34801561007857600080fd5b506102606004803603606081101561008f57600080fd5b81019080803590602001906401000000008111156100ac57600080fd5b8201836020820111156100be57600080fd5b803590602001918460018302840111640100000000831117156100e057600080fd5b91908080601f016020809104026020016040519081016040528093929190818152602001838380828437600081840152601f19601f8201169050808301925050505050505091929192908035906020019064010000000081111561014357600080fd5b82018360208201111561015557600080fd5b8035906020019184600183028401116401000000008311171561017757600080fd5b91908080601f016020809104026020016040519081016040528093929190818152602001838380828437600081840152601f19601f820116905080830192505050505050509192919290803590602001906401000000008111156101da57600080fd5b8201836020820111156101ec57600080fd5b8035906020019184600183028401116401000000008311171561020e57600080fd5b91908080601f016020809104026020016040519081016040528093929190818152602001838380828437600081840152601f19601f8201169050808301925050505050505091929192905050506105d0565b005b34801561026e57600080fd5b5061029b6004803603602081101561028557600080fd5b81019080803590602001909291905050506107f1565b60405180806020018060200180602001848103845287818151815260200191508051906020019080838360005b838110156102e35780820151818401526020810190506102c8565b50505050905090810190601f1680156103105780820380516001836020036101000a031916815260200191505b50848103835286818151815260200191508051906020019080838360005b8381101561034957808201518184015260208101905061032e565b50505050905090810190601f1680156103765780820380516001836020036101000a031916815260200191505b50848103825285818151815260200191508051906020019080838360005b838110156103af578082015181840152602081019050610394565b50505050905090810190601f1680156103dc5780820380516001836020036101000a031916815260200191505b50965050505050505060405180910390f35b3480156103fa57600080fd5b506104036109e3565b6040518082815260200191505060405180910390f35b34801561042557600080fd5b506104526004803603602081101561043c57600080fd5b81019080803590602001909291905050506109e9565b60405180806020018060200180602001848103845287818151815260200191508051906020019080838360005b8381101561049a57808201518184015260208101905061047f565b50505050905090810190601f1680156104c75780820380516001836020036101000a031916815260200191505b50848103835286818151815260200191508051906020019080838360005b838110156105005780820151818401526020810190506104e5565b50505050905090810190601f16801561052d5780820380516001836020036101000a031916815260200191505b50848103825285818151815260200191508051906020019080838360005b8381101561056657808201518184015260208101905061054b565b50505050905090810190601f1680156105935780820380516001836020036101000a031916815260200191505b50965050505050505060405180910390f35b3480156105b157600080fd5b506105ba610c22565b6040518082815260200191505060405180910390f35b600160008154809291906001019190505550606060405190810160405280848152602001838152602001828152506000806001548152602001908152602001600020600082015181600001908051906020019061062e929190610c2c565b50602082015181600101908051906020019061064b929190610c2c565b506040820151816002019080519060200190610668929190610c2c565b509050507f543d0b3090019cdf086cddf1831f41a69b8e061ffe035d25bd07a28ce5b6cbc160015484848460405180858152602001806020018060200180602001848103845287818151815260200191508051906020019080838360005b838110156106e15780820151818401526020810190506106c6565b50505050905090810190601f16801561070e5780820380516001836020036101000a031916815260200191505b50848103835286818151815260200191508051906020019080838360005b8381101561074757808201518184015260208101905061072c565b50505050905090810190601f1680156107745780820380516001836020036101000a031916815260200191505b50848103825285818151815260200191508051906020019080838360005b838110156107ad578082015181840152602081019050610792565b50505050905090810190601f1680156107da5780820380516001836020036101000a031916815260200191505b5097505050505050505060405180910390a1505050565b6000602052806000526040600020600091509050806000018054600181600116156101000203166002900480601f01602080910402602001604051908101604052809291908181526020018280546001816001161561010002031660029004801561089d5780601f106108725761010080835404028352916020019161089d565b820191906000526020600020905b81548152906001019060200180831161088057829003601f168201915b505050505090806001018054600181600116156101000203166002900480601f01602080910402602001604051908101604052809291908181526020018280546001816001161561010002031660029004801561093b5780601f106109105761010080835404028352916020019161093b565b820191906000526020600020905b81548152906001019060200180831161091e57829003601f168201915b505050505090806002018054600181600116156101000203166002900480601f0160208091040260200160405190810160405280929190818152602001828054600181600116156101000203166002900480156109d95780601f106109ae576101008083540402835291602001916109d9565b820191906000526020600020905b8154815290600101906020018083116109bc57829003601f168201915b5050505050905083565b60015481565b60608060606109f6610cac565b60008086815260200190815260200160002060606040519081016040529081600082018054600181600116156101000203166002900480601f016020809104026020016040519081016040528092919081815260200182805460018160011615610100020316600290048015610aad5780601f10610a8257610100808354040283529160200191610aad565b820191906000526020600020905b815481529060010190602001808311610a9057829003601f168201915b50505050508152602001600182018054600181600116156101000203166002900480601f016020809104026020016040519081016040528092919081815260200182805460018160011615610100020316600290048015610b4f5780601f10610b2457610100808354040283529160200191610b4f565b820191906000526020600020905b815481529060010190602001808311610b3257829003601f168201915b50505050508152602001600282018054600181600116156101000203166002900480601f016020809104026020016040519081016040528092919081815260200182805460018160011615610100020316600290048015610bf15780601f10610bc657610100808354040283529160200191610bf1565b820191906000526020600020905b815481529060010190602001808311610bd457829003601f168201915b5050505050815250509050806000015181602001518260400151829250819150809050935093509350509193909250565b6000600154905090565b828054600181600116156101000203166002900490600052602060002090601f016020900481019282601f10610c6d57805160ff1916838001178555610c9b565b82800160010185558215610c9b579182015b82811115610c9a578251825591602001919060010190610c7f565b5b509050610ca89190610cce565b5090565b6060604051908101604052806060815260200160608152602001606081525090565b610cf091905b80821115610cec576000816000905550600101610cd4565b5090565b9056fea165627a7a72305820eddea0b8b2dc303bbce04eadd2e52ececd67ec96f3423843666a8e6aa9eca21b0029",
  "source": "// SPDX-License-Identifier: MIT \r\npragma solidity >=0.4.22 <0.9.0;\r\n\r\ncontract MusicApp{\r\n    struct MusicTrack{\r\n        string name;\r\n        string artist;\r\n        string song;\r\n    }\r\n\r\n    mapping (uint256 => MusicTrack) public musictracks;\r\n    uint256 public trackcounter;\r\n\r\n    event TrackUploaded(uint256 trackId, string name, string artist,  string song);\r\n\r\n\r\n    function uploadTrack(string memory _name, string memory _artist, string memory _song) public {\r\n        trackcounter++;\r\n        musictracks[trackcounter] = MusicTrack(_name, _artist, _song);\r\n        emit TrackUploaded(trackcounter, _name, _artist, _song);\r\n    }\r\n\r\n    function getMusicTrack(uint256 trackId) public view returns(string memory, string memory, string memory){\r\n        MusicTrack memory tracks = musictracks[trackId];\r\n        return (tracks.name, tracks.artist, tracks.song);\r\n    }\r\n\r\n    function getTotalTracks() public view returns(uint256){\r\n        return trackcounter;\r\n    }\r\n}",
  "sourcePath": "C:\\Users\\singh\\Desktop\\spotify clone\\blockchain\\contracts\\MusicApp.sol",
  "compiler": {
    "name": "solc",
    "version": "0.5.1+commit.c8a2cb62.Emscripten.clang"
  },
  "schemaVersion": "3.4.14",
  "updatedAt": "2023-07-25T08:27:18.046Z",
  "networkType": "ethereum",
  "devdoc": {
    "methods": {}
  },
  "userdoc": {
    "methods": {}
  }
}